S011000074696E7931335F69722E73726563B1
S113000009C03BC020C01FC01EC01DC01CC01BC0F7
S11300101AC019C011241FBECFE9CDBF10E0A0E65D
S1130020B0E0E0EFF2E002C005900D92A236B10715
S1130030D9F720E0A2E6B0E001C01D92A836B207CD
S1130040E1F7F9D053C1DCCF9FB7F89420E826BD7F
S113005086BD9FBF0895B998C19885B7826085BF52
S11300608BB780648BBF84E083BF88B5816088BD13
S113007012BE88B7826088BF08951F920F920FB690
S11300800F9211242F933F938F939F9385B7826090
S113009085BF85B7826085BF8091660087FDB2C049
S11300A085B791E0892785BF20916000213019F040
S11300B02230A9F514C008B601FEA4C088B5816039
S11300C088BD12BE88B7826088BF82E080936000DA
S11300D010926300109262001092640093C008B6FC
S11300E001FC26C082B78A3118F182B7883208F041
S11300F01FC005B600FE0BC088B5816088BD12BE66
S113010088B7826088BF83E0809360007BC088B535
S1130110816088BD12BE88B7826088BF73C008B68C
S113012001FC06C082B78A3118F082B7803510F01E
S113013081E0EACF82B7883230F580916400882369
S1130140C1F08091620090916300880F991F909391
S113015063008093620005B600FE05C08160909341
S1130160630080936200109264002F5F209360000C
S113017002C09093640088B5816088BD12BE88B7C0
S1130180826088BF1EC08091620090916300880FD6
S1130190991F909363008093620005B600FE05C02A
S11301A08160909363008093620088B5816088BD0C
S11301B012BE88B7826088BF809160008F5F809391
S11301C06000809160008F30E8F08091620090912F
S11301D063009C012F7333272093670026E09695D4
S11301E087952A95E1F790936300809362008F735B
S11301F0992780688093660081E0809360008BB7C4
S11302008F7B8BBF80916000813061F488B5816001
S113021088BD12BE88B7826088BF85B78E7F85BFD0
S1130220109264009F918F913F912F910F900FBE78
S11302300F901F90189580E007DF8DE387BB81E066
S113024088BB2FEF85EA9EE0215080409040E1F783
S113025000C0000018BAFFDE85B7806285BF85B78D
S1130260877E85BF789490E121E08091660087FFC6
S113027038C0809166008F77809366008BB7806466
S11302808BBF309167004091650080916600807259
S1130290481751F0313041F488B3822788BB8091EC
S11302A0660080728093650030916700409165001C
S11302B0809166008072481751F03C3041F488B355
S11302C0892788BB8091660080728093650085B71A
S11302D08D7F85BF85B78E7F85BF85B7877E80611B
S11302E085BF85B7877E85BF8895BFCFF894FFCF3C
S10502F0010007
S9030000FC
