S011000074696E7931305F69722E73726563B4
S11300000AC03BC023C022C021C020C01FC01EC0E4
S11300101DC01CC01BC011271FBFCFE5D0E0DEBF31
S1130020CDBF20E0A0E4B0E0E8E0F3E402C0319109
S11300303D93A234B207D9F720E0A2E4B0E001C0B6
S11300401D93A834B207E1F719D15CC1D9CF4FB7DA
S1130050F89458ED5CBF86BF4FBF08950A98129874
S1130060A99A989A42E04DBD4FB541604FBD19BD64
S113007018BD4AB541604ABD08951F930F930FB749
S11300800F9310E04F935F936F937F938F93AF938E
S1130090BF93CF93DF93EF93FF93A99AA99AE6E4D2
S11300A0F0E0408147FDC9C045B371E0472745BB37
S11300B0E0E4F0E06081613019F06230D1F515C000
S11300C00AB500FFBAC04FB541604FBD19BD18BD98
S11300D04AB541604ABD42E04083E2E4F0E0119356
S11300E01083E4E4F0E01083A8C00AB500FD2EC03C
S11300F048B559B54A3C524048F148B559B549321A
S1130100544008F023C0A89B0BC04FB541604FBDBD
S113011019BD18BD4AB541604ABD43E040838DC056
S11301204FB541604FBD19BD18BD4AB541604ABDC8
S113013084C00AB500FD0AC048B559B54A3C5240CE
S113014028F048B559B54135584020F0E0E4F0E0D6
S113015041E0E4CF48B559B54932544050F5E4E4A0
S1130160F0E040814423D9F0E2E4F0E04081EF5F25
S1130170FF4F5081E150F040440F551FEF5FFF4F98
S113018050834293A89B03C0416041935083E4E4AD
S1130190F0E010836F5FE0E4F0E0608301C07083FF
S11301A04FB541604FBD19BD18BD4AB541604ABD48
S11301B020C0E2E4F0E04081EF5FFF4F5081E15066
S11301C0F040440F551FEF5FFF4F50834293A89BAD
S11301D003C04160419350834FB541604FBD19BD89
S11301E018BD4AB541604ABDE0E4F0E040814F5F8C
S11301F04083E0E4F0E040814F30F8F0A2E4B0E066
S11302004C91AF5FBF4F5C91A150B040642F752FEC
S11302106F737727C7E4D0E0688366E05695479507
S11302206A95E1F74D935C934F7355274068A6E4B4
S1130230B0E04C9341E040839898E0E4F0E04081E2
S1130240413061F44FB541604FBD19BD18BD4AB589
S113025041604ABDA898E4E4F0E01083FF91EF9177
S1130260DF91CF91BF91AF918F917F916F915F910A
S11302704F910F910FBF0F911F91189580E0E7DE0A
S11302804BE041B912B9EADE4AB741604ABF4AB706
S1130290417F4ABF7894E6E4F0E0C7E4D0E0A5E407
S11302A0B0E052E061E0408147FF27C040814F77D2
S11302B04083989A78818C9140814072841741F0F0
S11302C07C3031F442B1462742B9408140724C93AC
S11302D078818C9140814072841741F07E3031F4F2
S11302E042B1452742B9408140724C93A998A898DD
S11302F04AB7417F44604ABF88954AB7417F4ABFA5
S10B03008895D1CFF894FFCFDA
S10503080100EE
S9030000FC
